:100000000C9434000C9451000C9451000C94510049
:100010000C9451000C9451000C9451000C9451001C
:100020000C9451000C9451000C9451000C9451000C
:100030000C9451000C9451000C9451000C945100FC
:100040000C9451000C9451000C9451000C945100EC
:100050000C9451000C9451000C9451000C945100DC
:100060000C9491010C94510011241FBECFEFD8E0E5
:10007000DEBFCDBF11E0A0E0B1E0E4EFFDE002C0E3
:1000800005900D92A83EB107D9F722E0A8EEB1E0A5
:1000900001C01D92A530B207E1F70E94AB020C949B
:1000A000F8060C9400008091BC0080628093BC0034
:1000B0008091BC0084608093BC008091BC00816012
:1000C0008093BC008091BC0080688093BC0080E479
:1000D00096E020910201283011F480E00895019704
:1000E000C1F781E008958091BC0084608093BC00DA
:1000F0008091BC0081608093BC008091BC008068CE
:100100008093BC0080E496E020910201283111F434
:1001100080E008950197C1F783E008958091BC00C5
:1001200084608093BC008091BC0081608093BC009F
:100130008091BC0080688093BC0080E496E02091B0
:100140000201283211F480E008950197C1F783E09D
:100150000895ECEBF0E08081806180838081846091
:10016000808380818160808380818068808308951E
:10017000833221F0863211F0893221F5683020F582
:10018000423020F5E1E0E80FF0E0208130E0062E7B
:1001900002C0359527950A94E2F720FF19C08E5FBB
:1001A000E82FF0E081E090E001C0880F6A95EAF75F
:1001B0009081442321F0892B808380E008958095ED
:1001C0008923FACF82E0089583E0089581E00895BD
:1001D00084E008951092C50098E09093C4008130A7
:1001E00011F1B0F08230D1F0662351F08091C1005E
:1001F00080648093C1008091C10080628093C100BF
:1002000080E1489FA001112446604093C2000895F8
:100210008091C10088608093C100E6CF8091C100C9
:1002200088608093C1008091C1008061F4CF8430E8
:1002300009F138F4823049F1833009F18091E80105
:100240000895863059F080F08730C1F78091C00062
:1002500087FB882780F98093E801F0CF8091C00068
:1002600086FB882780F9F7CF8091C00085FB88271F
:1002700080F9F1CF8091C00082958170ECCF8091A0
:10028000C00083FB882780F9E6CF8091C00082FB05
:10029000882780F9E0CFFC01862F643668F46A3045
:1002A00020F4805D8083118208956AE00E94140426
:1002B000805D8083905D918308959091C00095FF4B
:1002C000FCCF8093C6000895CF93DF93EC01899112
:1002D000811103C0DF91CF9108950E945D01F7CF96
:1002E000EF92FF921F93CF93DF937C01162FD0E004
:1002F000C0E0CE15DF0554F0112369F08DE0DF91E9
:10030000CF911F91FF90EF900C945D018AE00E94C5
:100310005D012196EECFDF91CF911F91FF90EF907D
:1003200008951F920F920FB60F9211248F93809110
:10033000B900887F809302018F910F900FBE0F90BC
:100340001F9018959CE09093B8009091B9009D7F04
:100350009093B9009091B9009E7F9093B900882343
:1003600011F0449A459A8091BC0084608093BC004F
:10037000809100008460809300000895DF92EF92E6
:10038000FF920F931F93CF93DF93D82FD62E8A011E
:1003900079010E945300C82F882319F00E94A900F8
:1003A00045C08D2F880F8093BB000E947300C82F1B
:1003B0008111F4CFD092BB000E948E00C82F811112
:1003C000EDCF8091BC0080628093BC008091BC0026
:1003D00084608093BC008091BC0081608093BC00ED
:1003E0008091BC0080688093BC0080E496E02091FE
:1003F00002012031B1F4DD0FD160D093BB008091B8
:10040000BC0084608093BC008091BC0081608093BC
:10041000BC008091BC0080688093BC0080E496E0C2
:1004200011C0019721F70E94A900C2E08C2FDF9133
:10043000CF911F910F91FF90EF90DF90089501975A
:1004400009F43FC0209102012034C9F7F80190E07F
:1004500080E021E0E21AF1082091BC0024602093A2
:10046000BC002091BC0021602093BC002091BC0006
:100470008E159F0580F020682093BC0020E436E0B4
:1004800040910201483509F52091BB00080F191F62
:10049000F801208383CF20642093BC002091BC000E
:1004A00020682093BC0020E436E0409102014035F2
:1004B00029F42091BB0021930196CECF2150310920
:1004C000A1F70E94A900C3E0B1CF21503109C1F6C4
:1004D000F8CFDF92EF92FF920F931F93CF93DF93AA
:1004E000182F062FD42ED52F79010E945300C82F24
:1004F000882319F00E94A90025C0110F1093BB009A
:100500000E947300C82F8111F5CF0093BB000E9499
:100510008E00C82F8111EECF0D2D1D2FE00EF11E84
:10052000E016F10639F3F80181918F018093BB0049
:1005300081E090E00E948E00D82F882389F30E94EA
:10054000A900CD2F8C2FDF91CF911F910F91FF909C
:10055000EF90DF900895CF93DF93CDB7DEB72E975E
:100560000FB6F894DEBF0FBECDBF40E060E080E084
:100570000E94EA008FEF84B980E00E94A2018AE025
:1005800091E00E94640160E081E090E00E947001CF
:1005900087E0E3E0F1E0DE01189601900D928A9584
:1005A000E1F778948BE291E00E94640160E082E0E0
:1005B00090E00E94700127E030E0AE01485F5F4F9D
:1005C00060E088E60E9469028823F1F0ECEEF1E039
:1005D00098E1DF011D929A95E9F71F928F931F9280
:1005E0008BE38F938DE591E09F938F93FF93EF9330
:1005F0000E9420048CEE91E00E9464010FB6F894F2
:10060000DEBF0FBECDBFFFCFFFEF23ED80E3F15084
:1006100020408040E1F700C000000CEE11E088E1CE
:10062000D82E9CE6E92E91E0F92E27E030E0AE01CD
:100630004F5F5F4F60E088E60E94BE018823F1F0C3
:10064000ECEEF1E098E1DF011D929A95E9F71F9237
:100650008F931F9287E48F938DE591E09F938F9303
:10066000FF93EF930E9420048CEE91E00E946401BE
:100670000FB6F894DEBF0FBECDBFFFCFD801ED2D72
:100680001D92EA95E9F789811F928F938A811F92C3
:100690008F938B811F928F938D811F928F938E8169
:1006A0001F928F938F811F928F93FF92EF921F93D0
:1006B0000F930E9420048CEE91E00E9464018DE86B
:1006C00091E00E94640160E082E090E00E9470018D
:1006D000109204020FB6F894DEBF0FBECDBF60913A
:1006E0000402809100018150990B681719060CF4DF
:1006F0005AC060E081E090E00E9470018FEF91EEBF
:10070000A4E081509040A040E1F700C000008CEAD6
:1007100091E00E94640160E082E090E00E9470013C
:10072000BFEFE1EEF4E0B150E040F040E1F700C08F
:1007300000008BEB91E00E94640160E082E090E0B9
:100740000E94700180910001809304028091040254
:100750002091000190910101291B330B8217130690
:100760000CF051C06091E90187ED91E0662351F0F2
:100770008AEE91E00E944B018AEE91E00E946401B2
:1007800089ED91E00E94640160E082E090E00E94C7
:1007900070012FEF87EA91E6215080409040E1F709
:1007A00000C0000042CF41E083E20E94B8009FEF0A
:1007B000A1EEB4E09150A040B040E1F700C00000CD
:1007C00040E06091040283E20E94B800EFEFF1EE96
:1007D00024E0E150F0402040E1F700C000008091AB
:1007E0000402805D0E945D0184EB91E00E9464013F
:1007F00060E081E090E00E947001809104028F5FD0
:10080000809304026CCF0E94170190910402882308
:1008100039F0963029F08091E9018F5F8093E901EA
:1008200091509093040292CF991B79E004C0991FD4
:10083000961708F0961B881F7A95C9F7809508953A
:10084000AEE0B0E0E6E2F4E00C94CF060D891E893C
:1008500086E08C831A8309838FEF9FE79E838D83C5
:10086000AE01475E5F4F6F89788DCE0101960E9481
:1008700043042F813885020F131FF80110822E9632
:10088000E4E00C94EB06ABE0B0E0E9E4F4E00C94B7
:10089000C1067C013B018A01FC011782168283811B
:1008A00081FFC8C1CE0101965C01F7019381F3017C
:1008B00093FD859193FF81913F01882309F453C1F2
:1008C000853239F493FD859193FF81913F01853203
:1008D00029F4B70190E00E943306E7CF912C212C38
:1008E000312CFFE1F31538F08B3211F190F48032A6
:1008F00009F1833229F137FC3CC020ED280F2A3062
:1009000050F536FE20C08AE0989E200D1124922ECC
:1009100006C08D3291F0803371F7689430F8F3019E
:1009200093FD859193FF81913F018111DACF21C021
:10093000689431F8689432F8F2CF689433F8EFCFC6
:10094000689434F8ECCFEAE02E9E200D1124222E7C
:10095000689435F8E4CF8E3229F436FC04C16894EB
:1009600036F8DDCF8C3619F4689437F8D8CF88364E
:10097000B1F2982F9F7D95549330E0F08336A1F12A
:100980008337C1F1833509F063C02801F2E04F0ECF
:10099000511CF801C080D180692D70E036FC02C086
:1009A0006FEF7FEFC6010E941D064C01689437F877
:1009B00082010AC00C5F1F4FFFE3F98388248394F0
:1009C000912C6501E89437F833FE2DC0522C811428
:1009D000910471F5552009F468CFB70180E290E0E9
:1009E0000E9433065A94F6CFF801808189830E5F06
:1009F0001F4FE4CF2801F2E04F0E511CF801C080D8
:100A0000D180692D70E036FC02C06FEF7FEFC60128
:100A10000E9428064C018201D5CFB70180E290E008
:100A20000E9433062A942814190409F0B0F7CECF97
:100A3000F60137FC859137FE81916F01B70190E097
:100A40000E94330651105A94F1E08F1A9108BFCFDB
:100A5000843619F0893609F077C0F80137FE6BC08B
:100A600060817181828193810C5F1F4FF32DFF762E
:100A70003F2E97FF09C090958095709561957F4FA7
:100A80008F4F9F4F689437F82AE030E0A5010E940D
:100A90006306C82ECA188C2C432C36FE0CC0E89472
:100AA00040F8C91440F434FE05C032FC03C0F32DF5
:100AB000FE7E4F2E892C44FE95C0FE01EC0DF11DEB
:100AC0008081803309F087C0242D297E422E842D19
:100AD0008870582E43FC95C040FE8FC09C2C821419
:100AE00018F42C0C922C981844FE91C0B70180E3A6
:100AF00090E00E94330642FE09C088E790E041FE84
:100B000002C088E590E0B7010E943306C91408F4DA
:100B10008AC0CA94D12C9FEFC91AD90ACA0CDB1C0F
:100B2000F60182916F01B70190E00E943306AC1488
:100B3000BD04B1F74FCF60817181072E000C880B87
:100B4000990B0E5F1F4F92CFD32CE894D4F82AE074
:100B500030E0853739F1232D297FD22E8F3601F1F0
:100B600048F48835A9F0F701868197812B96E2E158
:100B70000C94DD06803749F08837A9F7D4FE02C00F
:100B80006894D2F820E130E00DC06894D4F8F6CF34
:100B900034FE03C0822F8660D82E20E132E002C0EE
:100BA00028E030E0F801D7FE0FC0608171818281BA
:100BB00093810C5F1F4FA5010E946306C82ECA18BF
:100BC0003D2CE89437F867CF6081718190E080E038
:100BD0000E5F1F4FF0CF42FC02C0839478CF839406
:100BE000839475CF842D867809F471CFF6CFB70141
:100BF00080E290E00E94330683948214C0F3512C6B
:100C000073CF522C5818821408F46ECFF8CF842D6D
:100C1000867809F47BCF8BE241FE80E247FC8DE2CF
:100C2000B70190E071CFB70180E390E00E943306F6
:100C30009A946CCF8FEF9FEF99CFFC010590615094
:100C400070400110D8F7809590958E0F9F1F0895E2
:100C5000FC016150704001900110D8F7809590958B
:100C60008E0F9F1F08950F931F93CF93DF93182F1D
:100C7000092FEB018B8181FD09C01FEF0FEF812F41
:100C8000902FDF91CF911F910F91089582FF14C093
:100C90002E813F818C819D81281739073CF4E881A2
:100CA000F981CF0101969983888310838E819F817A
:100CB00001969F838E83E3CFE885F985812F09957F
:100CC000892BA1F3DACFFA01AA27283051F120317C
:100CD00081F1E8946F936E7F6E5F7F4F8F4F9F4FD0
:100CE000AF4FB1E03ED0B4E03CD0670F781F891F12
:100CF0009A1FA11D680F791F8A1F911DA11D6A0FE0
:100D0000711D811D911DA11D20D009F468943F9192
:100D10002AE0269F11243019305D3193DEF6CF0191
:100D20000895462F4770405D4193B3E00FD0C9F757
:100D3000F6CF462F4F70405D4A3318F0495D31FDC4
:100D40004052419302D0A9F7EACFB4E0A695979517
:100D5000879577956795BA95C9F7009761057105ED
:100D600008959B01AC010A2E069457954795379537
:100D70002795BA95C9F7620F731F841F951FA01D91
:100D800008952F923F924F925F926F927F928F922F
:100D90009F92AF92BF92CF92DF92EF92FF920F930A
:100DA0001F93CF93DF93CDB7DEB7CA1BDB0B0FB614
:100DB000F894DEBF0FBECDBF09942A8839884888D1
:100DC0005F846E847D848C849B84AA84B984C88467
:100DD000DF80EE80FD800C811B81AA81B981CE0F5E
:100DE000D11D0FB6F894DEBF0FBECDBFED01089543
:040DF000F894FFCFA5
:100DF4000706F85046200716072349324320626944
:100E040074207261746520616E642053434C2069C0
:100E14006E697469616C697A65640057656C636FA7
:100E24006D6520746F2041544D65676133323850CD
:100E340020447269766572204465762E206279209A
:100E44004B6576696E204861727065720025642076
:100E54006572726F722025640D0A0A000D32302506
:100E64003032782F253032782F25303278202530D3
:100E740032783A253032783A2530327800466C613F
:100E84007368696E6720616C6C2062697473206F8B
:100E94006E20706F727420422E2E2E00416C6C20D6
:100EA40070696E7320646F6E652E00537461727482
:100EB400696E67205541525420466C61672043682F
:100EC40065636B2E2E2E004E6F20666C6167732057
:080ED400666F756E642E0000CC
:00000001FF
