:100000000C9434000C9451000C9451000C94510049
:100010000C9451000C9451000C9451000C9451001C
:100020000C9451000C9451000C9451000C9451000C
:100030000C9451000C9451000C9451000C945100FC
:100040000C9451000C9451000C9451000C945100EC
:100050000C9451000C9451000C9451000C945100DC
:100060000C9451000C94510011241FBECFEFD8E026
:10007000DEBFCDBF12E0A0E0B1E0E8E4F5E002C0F1
:1000800005900D92A035B107D9F722E0A0E5B2E0C6
:1000900001C01D92A635B207E1F70E9487010C94BA
:1000A000A2020C9400008091B900887F08958332E9
:1000B00021F0863211F0893221F5683020F5423086
:1000C00020F5E1E0E80FF0E0208130E0062E02C0EC
:1000D000359527950A94E2F720FF19C08E5FE82F27
:1000E000F0E081E090E001C0880F6A95EAF7908126
:1000F000442321F0892B808380E008958095892313
:10010000FACF82E0089583E0089581E0089584E0C5
:1001100008951092C50098E09093C400813011F1C9
:10012000B0F08230D1F0662351F08091C10080643C
:100130008093C1008091C10080628093C10080E102
:10014000489FA001112446604093C2000895809109
:10015000C10088608093C100E6CF8091C1008860B3
:100160008093C1008091C1008061F4CF843009F197
:1001700038F4823049F1833009F1809150020895BA
:10018000863059F080F08730C1F78091C00087FB3E
:10019000882780F980935002F0CF8091C00086FBC1
:1001A000882780F9F7CF8091C00085FB882780F9E8
:1001B000F1CF8091C00082958170ECCF8091C0001A
:1001C00083FB882780F9E6CF8091C00082FB8827D7
:1001D00080F9E0CFFC01862F643668F46A3020F4A1
:1001E000805D8083118208956AE00E949602805D9E
:1001F0008083905D918308959091C00095FFFCCF1E
:100200008093C6000895CF93DF93EC01899181110B
:1002100003C0DF91CF9108950E94FC00F7CFEF92C9
:10022000FF921F93CF93DF937C01162FD0E0C0E0A5
:10023000CE15DF0554F0112369F08DE0DF91CF91E9
:100240001F91FF90EF900C94FC008AE00E94FC004C
:100250002196EECFDF91CF911F91FF90EF900895FF
:100260009091B9009D7F9093B9009091B9009E7FC5
:100270009093B900882339F085B78F7E85BF3C986D
:100280003D98449A459A8CE08093B8008091BC00D8
:1002900084608093BC0008958091BC00806280934C
:1002A000BC008091BC0084608093BC008091BC0045
:1002B00080688093BC008091BC0090E0880F892FFB
:1002C000881F990B892BB9F308958093BB00809107
:1002D000BC0084608093BC008091BC0080688093E7
:1002E000BC008091BC0090E0880F892F881F990B7B
:1002F000892BB9F30895ECEBF0E08081806880836E
:10030000808180618083808184608083089540E063
:1003100060E080E00E9489008FEF84B981E00E9454
:10032000300182E091E00E94030160E081E090E012
:100330000E940F010E944C0183E291E00E940301A0
:1003400060E081E090E00E940F0180ED0E94650175
:100350008CE391E00E94030160E081E090E00E9464
:100360000F0183E590E088319105E9F788E591E098
:100370000E94030160E081E090E00E940F0180E0B4
:100380000E94650181E891E00E94030160E081E044
:1003900090E00E940F0186E991E00E94030160E075
:1003A00081E090E00E940F010E947B0183EC91E0CC
:1003B0000E94030160E082E090E00E940F012FEFB5
:1003C00083ED90E3215080409040E1F700C00000B1
:1003D00085EF91E00E94030160E082E090E00E94DE
:1003E0000F011092550260915502809100018150D9
:1003F000990B681719060CF458C060E081E090E092
:100400000E940F012FEF81EE94E021508040904038
:10041000E1F700C0000084E192E00E94030160E087
:1004200082E090E00E940F012FEF81EE94E02150D6
:1004300080409040E1F700C0000083E292E00E941B
:10044000030160E082E090E00E940F0180910001D2
:1004500080935502809155022091000190910101F5
:10046000291B330B821713060CF04FC06091510209
:100470008FE392E0662351F083E592E00E94EA0068
:1004800083E592E00E94030181E492E00E9403016F
:1004900060E082E090E00E940F012FEF87EA91E692
:1004A000215080409040E1F791CF41E083E20E94EB
:1004B00057002FEF81EE94E0215080409040E1F70B
:1004C00000C0000040E06091550283E20E945700A6
:1004D0002FEF81EE94E0215080409040E1F700C082
:1004E000000080915502805D0E94FC008CE192E04A
:1004F0000E94030160E081E090E00E940F01809182
:1005000055028F5F809355026ECF0E94B600909186
:100510005502882339F0963029F0809151028F5F7F
:100520008093510291509093550294CF991B79E09A
:1005300004C0991F961708F0961B881F7A95C9F773
:0805400080950895F894FFCFA7
:10054800070649324320626974207261746520612C
:100558006E642053434C20696E697469616C697AD2
:1005680065640049324320535441525420636F6EEE
:10057800646974696F6E2073656E740054574920FE
:10058800534C412061646472657373207061636BBE
:1005980065742073656E7400534C412B5720686155
:1005A80073206265656E207472616E736D69747410
:1005B80065642C2041434B207265636569766564E8
:1005C800005457492064617461207061636B6574DD
:1005D8002073656E740044617461206279746520CB
:1005E800686173206265656E207472616E736D69EF
:1005F800747465642C2041434B2072656365697689
:1006080065640057656C636F6D6520746F20415495
:100618004D656761333238502044726976657220BF
:100628004465762E206279204B6576696E20486194
:100638007270657200466C617368696E6720616CE0
:100648006C2062697473206F6E20706F7274204220
:100658002E2E2E00416C6C2070696E7320646F6EB4
:10066800652E005374617274696E67205541525447
:1006780020466C616720436865636B2E2E2E004E02
:100688006F20666C61677320666F756E642E00005C
:00000001FF
