:100000000C9434000C9451000C9451000C94510049
:100010000C9451000C9451000C9451000C9451001C
:100020000C9451000C9451000C9451000C9451000C
:100030000C9451000C9451000C9451000C945100FC
:100040000C9451000C9451000C9451000C945100EC
:100050000C9451000C9451000C9451000C945100DC
:100060000C9451000C94510011241FBECFEFD8E026
:10007000DEBFCDBF11E0A0E0B1E0ECE3F4E002C0F0
:1000800005900D92AE38B107D9F721E0AEE8B1E0A6
:1000900001C01D92A439B207E1F70E9446010C94F9
:1000A0001C020C940000833221F0863211F0893258
:1000B00021F5683020F5423020F5E1E0E80FF0E06E
:1000C000208130E0062E02C0359527950A94E2F78C
:1000D00020FF19C08E5FE82FF0E081E090E001C0C2
:1000E000880F6A95EAF79081442321F0892B808359
:1000F00080E0089580958923FACF82E0089583E017
:10010000089581E0089584E008951092C50098E074
:100110009093C400813011F1B0F08230D1F06623A9
:1001200051F08091C10080648093C1008091C10032
:1001300080628093C10080E1489FA0011124466045
:100140004093C20008958091C10088608093C100EF
:10015000E6CF8091C10088608093C1008091C1008A
:100160008061F4CF843009F138F4823049F1833072
:1001700009F180918E010895863059F080F0873022
:10018000C1F78091C00087FB882780F980938E019A
:10019000F0CF8091C00086FB882780F9F7CF80914F
:1001A000C00085FB882780F9F1CF8091C00082953F
:1001B0008170ECCF8091C00083FB882780F9E6CF67
:1001C0008091C00082FB882780F9E0CFFC01862F58
:1001D000643668F46A3020F4805D8083118208956B
:1001E0006AE00E941002805D8083905D9183089593
:1001F0009091C00095FFFCCF8093C6000895CF93E7
:10020000DF93EC018991811103C0DF91CF910895B3
:100210000E94F800F7CFEF92FF921F93CF93DF93E6
:100220007C01162FD0E0C0E0CE15DF0554F011237D
:1002300069F08DE0DF91CF911F91FF90EF900C94CA
:10024000F8008AE00E94F8002196EECFDF91CF916E
:100250001F91FF90EF9008959091B9009260909354
:10026000B9009091B9009E7F9093B90092E090936D
:10027000B8009091BC0094609093BC00882321F05A
:100280003C9A3D9A449A459A80E0089540E060E0A7
:1002900080E00E9485008FEF84B981E00E942C01EC
:1002A00082E091E00E94FF0060E082E090E00E9426
:1002B0000B012FEF83ED90E3215080409040E1F758
:1002C00000C0000084E391E00E94FF0060E082E053
:1002D00090E00E940B011092930160919301809134
:1002E00000018150990B681719060CF458C060E0A2
:1002F00081E090E00E940B012FEF81EE94E021500D
:1003000080409040E1F700C0000083E591E00E944A
:10031000FF0060E082E090E00E940B012FEF81EE91
:1003200094E0215080409040E1F700C0000082E658
:1003300091E00E94FF0060E082E090E00E940B01EB
:10034000809100018093930180919301209100019D
:1003500090910101291B330B821713060CF04FC03B
:1003600060918F018EE791E0662351F081E991E081
:100370000E94E60081E991E00E94FF0080E891E0A0
:100380000E94FF0060E082E090E00E940B012FEFEE
:1003900087EA91E6215080409040E1F791CF41E01B
:1003A00083E20E9453002FEF81EE94E021508040C1
:1003B0009040E1F700C0000040E06091930183E2CB
:1003C0000E9453002FEF81EE94E021508040904036
:1003D000E1F700C0000080919301805D0E94F80069
:1003E0008BE591E00E94FF0060E081E090E00E94D8
:1003F0000B01809193018F5F809393016ECF0E94D8
:10040000B20090919301882339F0963029F08091C1
:100410008F018F5F80938F0191509093930194CFC0
:10042000991B79E004C0991F961708F0961B881F46
:0C0430007A95C9F780950895F894FFCFE5
:10043C00070657656C636F6D6520746F2041544DD2
:10044C006567613332385020447269766572204496
:10045C0065762E206279204B6576696E2048617234
:10046C0070657200466C617368696E6720616C6CB4
:10047C002062697473206F6E20706F727420422E2C
:10048C002E2E00416C6C2070696E7320646F6E654B
:10049C002E005374617274696E672055415254205A
:1004AC00466C616720436865636B2E2E2E004E6F81
:0E04BC0020666C61677320666F756E642E009B
:00000001FF
